{
  "_format": "hh-sol-artifact-1",
  "contractName": "Learnpack",
  "sourceName": "contracts/Learnpack.sol",
  "abi": [
    {
      "inputs": [
        {
          "internalType": "string",
          "name": "url",
          "type": "string"
        }
      ],
      "stateMutability": "nonpayable",
      "type": "constructor"
    },
    {
      "anonymous": false,
      "inputs": [
        {
          "indexed": true,
          "internalType": "address",
          "name": "account",
          "type": "address"
        },
        {
          "indexed": true,
          "internalType": "address",
          "name": "operator",
          "type": "address"
        },
        {
          "indexed": false,
          "internalType": "bool",
          "name": "approved",
          "type": "bool"
        }
      ],
      "name": "ApprovalForAll",
      "type": "event"
    },
    {
      "anonymous": false,
      "inputs": [
        {
          "indexed": true,
          "internalType": "address",
          "name": "previousOwner",
          "type": "address"
        },
        {
          "indexed": true,
          "internalType": "address",
          "name": "newOwner",
          "type": "address"
        }
      ],
      "name": "OwnershipTransferred",
      "type": "event"
    },
    {
      "anonymous": false,
      "inputs": [
        {
          "indexed": true,
          "internalType": "address",
          "name": "operator",
          "type": "address"
        },
        {
          "indexed": true,
          "internalType": "address",
          "name": "from",
          "type": "address"
        },
        {
          "indexed": true,
          "internalType": "address",
          "name": "to",
          "type": "address"
        },
        {
          "indexed": false,
          "internalType": "uint256[]",
          "name": "ids",
          "type": "uint256[]"
        },
        {
          "indexed": false,
          "internalType": "uint256[]",
          "name": "values",
          "type": "uint256[]"
        }
      ],
      "name": "TransferBatch",
      "type": "event"
    },
    {
      "anonymous": false,
      "inputs": [
        {
          "indexed": true,
          "internalType": "address",
          "name": "operator",
          "type": "address"
        },
        {
          "indexed": true,
          "internalType": "address",
          "name": "from",
          "type": "address"
        },
        {
          "indexed": true,
          "internalType": "address",
          "name": "to",
          "type": "address"
        },
        {
          "indexed": false,
          "internalType": "uint256",
          "name": "id",
          "type": "uint256"
        },
        {
          "indexed": false,
          "internalType": "uint256",
          "name": "value",
          "type": "uint256"
        }
      ],
      "name": "TransferSingle",
      "type": "event"
    },
    {
      "anonymous": false,
      "inputs": [
        {
          "indexed": false,
          "internalType": "string",
          "name": "value",
          "type": "string"
        },
        {
          "indexed": true,
          "internalType": "uint256",
          "name": "id",
          "type": "uint256"
        }
      ],
      "name": "URI",
      "type": "event"
    },
    {
      "anonymous": false,
      "inputs": [
        {
          "indexed": true,
          "internalType": "address",
          "name": "winner",
          "type": "address"
        },
        {
          "indexed": false,
          "internalType": "string",
          "name": "twitterHandle",
          "type": "string"
        },
        {
          "indexed": false,
          "internalType": "string",
          "name": "message",
          "type": "string"
        }
      ],
      "name": "WinnerAdded",
      "type": "event"
    },
    {
      "inputs": [],
      "name": "ANSWERING_TOKEN",
      "outputs": [
        {
          "internalType": "uint256",
          "name": "",
          "type": "uint256"
        }
      ],
      "stateMutability": "view",
      "type": "function"
    },
    {
      "inputs": [],
      "name": "AUTHOR_TOKEN",
      "outputs": [
        {
          "internalType": "uint256",
          "name": "",
          "type": "uint256"
        }
      ],
      "stateMutability": "view",
      "type": "function"
    },
    {
      "inputs": [],
      "name": "CERTIFICATE_ID",
      "outputs": [
        {
          "internalType": "uint256",
          "name": "",
          "type": "uint256"
        }
      ],
      "stateMutability": "view",
      "type": "function"
    },
    {
      "inputs": [],
      "name": "EARNINGS_TOKEN",
      "outputs": [
        {
          "internalType": "uint256",
          "name": "",
          "type": "uint256"
        }
      ],
      "stateMutability": "view",
      "type": "function"
    },
    {
      "inputs": [],
      "name": "GOVERNANCE_TOKEN",
      "outputs": [
        {
          "internalType": "uint256",
          "name": "",
          "type": "uint256"
        }
      ],
      "stateMutability": "view",
      "type": "function"
    },
    {
      "inputs": [],
      "name": "MAX_AUTHORS",
      "outputs": [
        {
          "internalType": "uint256",
          "name": "",
          "type": "uint256"
        }
      ],
      "stateMutability": "view",
      "type": "function"
    },
    {
      "inputs": [],
      "name": "MAX_TIME_TO_ANSWER",
      "outputs": [
        {
          "internalType": "uint256",
          "name": "",
          "type": "uint256"
        }
      ],
      "stateMutability": "view",
      "type": "function"
    },
    {
      "inputs": [
        {
          "internalType": "bytes32",
          "name": "answer",
          "type": "bytes32"
        }
      ],
      "name": "answerQuestion",
      "outputs": [],
      "stateMutability": "nonpayable",
      "type": "function"
    },
    {
      "inputs": [
        {
          "internalType": "uint256",
          "name": "",
          "type": "uint256"
        }
      ],
      "name": "answers",
      "outputs": [
        {
          "internalType": "bytes32",
          "name": "",
          "type": "bytes32"
        }
      ],
      "stateMutability": "view",
      "type": "function"
    },
    {
      "inputs": [
        {
          "internalType": "uint256",
          "name": "",
          "type": "uint256"
        }
      ],
      "name": "authors",
      "outputs": [
        {
          "internalType": "address",
          "name": "",
          "type": "address"
        }
      ],
      "stateMutability": "view",
      "type": "function"
    },
    {
      "inputs": [
        {
          "internalType": "address",
          "name": "account",
          "type": "address"
        },
        {
          "internalType": "uint256",
          "name": "id",
          "type": "uint256"
        }
      ],
      "name": "balanceOf",
      "outputs": [
        {
          "internalType": "uint256",
          "name": "",
          "type": "uint256"
        }
      ],
      "stateMutability": "view",
      "type": "function"
    },
    {
      "inputs": [
        {
          "internalType": "address[]",
          "name": "accounts",
          "type": "address[]"
        },
        {
          "internalType": "uint256[]",
          "name": "ids",
          "type": "uint256[]"
        }
      ],
      "name": "balanceOfBatch",
      "outputs": [
        {
          "internalType": "uint256[]",
          "name": "",
          "type": "uint256[]"
        }
      ],
      "stateMutability": "view",
      "type": "function"
    },
    {
      "inputs": [
        {
          "internalType": "address",
          "name": "account",
          "type": "address"
        },
        {
          "internalType": "address",
          "name": "operator",
          "type": "address"
        }
      ],
      "name": "isApprovedForAll",
      "outputs": [
        {
          "internalType": "bool",
          "name": "",
          "type": "bool"
        }
      ],
      "stateMutability": "view",
      "type": "function"
    },
    {
      "inputs": [
        {
          "internalType": "uint256",
          "name": "questionIndex",
          "type": "uint256"
        },
        {
          "internalType": "string",
          "name": "guess",
          "type": "string"
        }
      ],
      "name": "isValidGuess",
      "outputs": [
        {
          "internalType": "bool",
          "name": "",
          "type": "bool"
        }
      ],
      "stateMutability": "view",
      "type": "function"
    },
    {
      "inputs": [
        {
          "internalType": "address",
          "name": "",
          "type": "address"
        }
      ],
      "name": "nextQuestion",
      "outputs": [
        {
          "internalType": "uint16",
          "name": "",
          "type": "uint16"
        }
      ],
      "stateMutability": "view",
      "type": "function"
    },
    {
      "inputs": [],
      "name": "owner",
      "outputs": [
        {
          "internalType": "address",
          "name": "",
          "type": "address"
        }
      ],
      "stateMutability": "view",
      "type": "function"
    },
    {
      "inputs": [
        {
          "internalType": "string",
          "name": "question",
          "type": "string"
        },
        {
          "internalType": "bytes32",
          "name": "answer",
          "type": "bytes32"
        }
      ],
      "name": "publishQuestion",
      "outputs": [],
      "stateMutability": "nonpayable",
      "type": "function"
    },
    {
      "inputs": [
        {
          "internalType": "uint256",
          "name": "",
          "type": "uint256"
        }
      ],
      "name": "questions",
      "outputs": [
        {
          "internalType": "string",
          "name": "",
          "type": "string"
        }
      ],
      "stateMutability": "view",
      "type": "function"
    },
    {
      "inputs": [],
      "name": "renounceOwnership",
      "outputs": [],
      "stateMutability": "nonpayable",
      "type": "function"
    },
    {
      "inputs": [
        {
          "internalType": "address",
          "name": "from",
          "type": "address"
        },
        {
          "internalType": "address",
          "name": "to",
          "type": "address"
        },
        {
          "internalType": "uint256[]",
          "name": "ids",
          "type": "uint256[]"
        },
        {
          "internalType": "uint256[]",
          "name": "amounts",
          "type": "uint256[]"
        },
        {
          "internalType": "bytes",
          "name": "data",
          "type": "bytes"
        }
      ],
      "name": "safeBatchTransferFrom",
      "outputs": [],
      "stateMutability": "nonpayable",
      "type": "function"
    },
    {
      "inputs": [
        {
          "internalType": "address",
          "name": "from",
          "type": "address"
        },
        {
          "internalType": "address",
          "name": "to",
          "type": "address"
        },
        {
          "internalType": "uint256",
          "name": "id",
          "type": "uint256"
        },
        {
          "internalType": "uint256",
          "name": "amount",
          "type": "uint256"
        },
        {
          "internalType": "bytes",
          "name": "data",
          "type": "bytes"
        }
      ],
      "name": "safeTransferFrom",
      "outputs": [],
      "stateMutability": "nonpayable",
      "type": "function"
    },
    {
      "inputs": [
        {
          "internalType": "address",
          "name": "operator",
          "type": "address"
        },
        {
          "internalType": "bool",
          "name": "approved",
          "type": "bool"
        }
      ],
      "name": "setApprovalForAll",
      "outputs": [],
      "stateMutability": "nonpayable",
      "type": "function"
    },
    {
      "inputs": [
        {
          "internalType": "address",
          "name": "",
          "type": "address"
        }
      ],
      "name": "startedAnswering",
      "outputs": [
        {
          "internalType": "uint256",
          "name": "",
          "type": "uint256"
        }
      ],
      "stateMutability": "view",
      "type": "function"
    },
    {
      "inputs": [
        {
          "internalType": "bytes4",
          "name": "interfaceId",
          "type": "bytes4"
        }
      ],
      "name": "supportsInterface",
      "outputs": [
        {
          "internalType": "bool",
          "name": "",
          "type": "bool"
        }
      ],
      "stateMutability": "view",
      "type": "function"
    },
    {
      "inputs": [],
      "name": "takeQuestion",
      "outputs": [],
      "stateMutability": "nonpayable",
      "type": "function"
    },
    {
      "inputs": [
        {
          "internalType": "address",
          "name": "newOwner",
          "type": "address"
        }
      ],
      "name": "transferOwnership",
      "outputs": [],
      "stateMutability": "nonpayable",
      "type": "function"
    },
    {
      "inputs": [
        {
          "internalType": "uint256",
          "name": "",
          "type": "uint256"
        }
      ],
      "name": "uri",
      "outputs": [
        {
          "internalType": "string",
          "name": "",
          "type": "string"
        }
      ],
      "stateMutability": "view",
      "type": "function"
    },
    {
      "inputs": [
        {
          "internalType": "uint256",
          "name": "",
          "type": "uint256"
        }
      ],
      "name": "winners",
      "outputs": [
        {
          "internalType": "address",
          "name": "winner",
          "type": "address"
        },
        {
          "internalType": "string",
          "name": "twitterHandle",
          "type": "string"
        },
        {
          "internalType": "string",
          "name": "message",
          "type": "string"
        }
      ],
      "stateMutability": "view",
      "type": "function"
    }
  ],
  "bytecode": "0x60806040523480156200001157600080fd5b5060405162004afe38038062004afe833981810160405281019062000037919062000815565b8062000049816200011360201b60201c565b506200006a6200005e6200012f60201b60201c565b6200013760201b60201c565b6200008f336002600a60405180602001604052806000815250620001fd60201b60201c565b620000b4336003600a60405180602001604052806000815250620001fd60201b60201c565b620000e0336004670de0b6b3a764000060405180602001604052806000815250620001fd60201b60201c565b6200010c336005670de0b6b3a764000060405180602001604052806000815250620001fd60201b60201c565b5062000f07565b80600290805190602001906200012b929190620006b0565b5050565b600033905090565b6000600360009054906101000a900473ffffffffffffffffffffffffffffffffffffffff16905081600360006101000a81548173ffffffffffffffffffffffffffffffffffffffff021916908373ffffffffffffffffffffffffffffffffffffffff1602179055508173ffffffffffffffffffffffffffffffffffffffff168173ffffffffffffffffffffffffffffffffffffffff167f8be0079c531659141344cd1fd0a4f28419497f9722a3daafe3b4186f6b6457e060405160405180910390a35050565b600073ffffffffffffffffffffffffffffffffffffffff168473ffffffffffffffffffffffffffffffffffffffff16141562000270576040517f08c379a0000000000000000000000000000000000000000000000000000000008152600401620002679062000a3f565b60405180910390fd5b6000620002826200012f60201b60201c565b9050620002bb816000876200029d88620003c260201b60201c565b620002ae88620003c260201b60201c565b876200048b60201b60201c565b8260008086815260200190815260200160002060008773ffffffffffffffffffffffffffffffffffffffff1673ffffffffffffffffffffffffffffffffffffffff16815260200190815260200160002060008282546200031c919062000b25565b925050819055508473ffffffffffffffffffffffffffffffffffffffff16600073ffffffffffffffffffffffffffffffffffffffff168273ffffffffffffffffffffffffffffffffffffffff167fc3d58168c5ae7397731d063d5bbf3d657854427343f4c083240f7aacaa2d0f6287876040516200039c92919062000a61565b60405180910390a4620003bb816000878787876200049360201b60201c565b5050505050565b60606000600167ffffffffffffffff81111562000408577f4e487b7100000000000000000000000000000000000000000000000000000000600052604160045260246000fd5b604051908082528060200260200182016040528015620004375781602001602082028036833780820191505090505b509050828160008151811062000476577f4e487b7100000000000000000000000000000000000000000000000000000000600052603260045260246000fd5b60200260200101818152505080915050919050565b505050505050565b620004bf8473ffffffffffffffffffffffffffffffffffffffff166200069d60201b620017261760201c565b1562000695578373ffffffffffffffffffffffffffffffffffffffff1663f23a6e6187878686866040518663ffffffff1660e01b81526004016200050895949392919062000973565b602060405180830381600087803b1580156200052357600080fd5b505af19250505080156200055757506040513d601f19601f82011682018060405250810190620005549190620007e9565b60015b62000609576200056662000d1b565b806308c379a01415620005ca57506200057e62000e4b565b806200058b5750620005cc565b806040517f08c379a0000000000000000000000000000000000000000000000000000000008152600401620005c19190620009d7565b60405180910390fd5b505b6040517f08c379a00000000000000000000000000000000000000000000000000000000081526004016200060090620009fb565b60405180910390fd5b63f23a6e6160e01b7bffffffffffffffffffffffffffffffffffffffffffffffffffffffff1916817bffffffffffffffffffffffffffffffffffffffffffffffffffffffff19161462000693576040517f08c379a00000000000000000000000000000000000000000000000000000000081526004016200068a9062000a1d565b60405180910390fd5b505b505050505050565b600080823b905060008111915050919050565b828054620006be9062000c22565b90600052602060002090601f016020900481019282620006e257600085556200072e565b82601f10620006fd57805160ff19168380011785556200072e565b828001600101855582156200072e579182015b828111156200072d57825182559160200191906001019062000710565b5b5090506200073d919062000741565b5090565b5b808211156200075c57600081600090555060010162000742565b5090565b600062000777620007718462000ab7565b62000a8e565b9050828152602081018484840111156200079057600080fd5b6200079d84828562000bec565b509392505050565b600081519050620007b68162000eed565b92915050565b600082601f830112620007ce57600080fd5b8151620007e084826020860162000760565b91505092915050565b600060208284031215620007fc57600080fd5b60006200080c84828501620007a5565b91505092915050565b6000602082840312156200082857600080fd5b600082015167ffffffffffffffff8111156200084357600080fd5b6200085184828501620007bc565b91505092915050565b620008658162000b82565b82525050565b6000620008788262000aed565b62000884818562000b03565b93506200089681856020860162000bec565b620008a18162000d40565b840191505092915050565b6000620008b98262000af8565b620008c5818562000b14565b9350620008d781856020860162000bec565b620008e28162000d40565b840191505092915050565b6000620008fc60348362000b14565b9150620009098262000d5e565b604082019050919050565b60006200092360288362000b14565b9150620009308262000dad565b604082019050919050565b60006200094a60218362000b14565b9150620009578262000dfc565b604082019050919050565b6200096d8162000be2565b82525050565b600060a0820190506200098a60008301886200085a565b6200099960208301876200085a565b620009a8604083018662000962565b620009b7606083018562000962565b8181036080830152620009cb81846200086b565b90509695505050505050565b60006020820190508181036000830152620009f38184620008ac565b905092915050565b6000602082019050818103600083015262000a1681620008ed565b9050919050565b6000602082019050818103600083015262000a388162000914565b9050919050565b6000602082019050818103600083015262000a5a816200093b565b9050919050565b600060408201905062000a78600083018562000962565b62000a87602083018462000962565b9392505050565b600062000a9a62000aad565b905062000aa8828262000c58565b919050565b6000604051905090565b600067ffffffffffffffff82111562000ad55762000ad462000cec565b5b62000ae08262000d40565b9050602081019050919050565b600081519050919050565b600081519050919050565b600082825260208201905092915050565b600082825260208201905092915050565b600062000b328262000be2565b915062000b3f8362000be2565b9250827fffffffffffffffffffffffffffffffffffffffffffffffffffffffffffffffff0382111562000b775762000b7662000c8e565b5b828201905092915050565b600062000b8f8262000bc2565b9050919050565b60007fffffffff0000000000000000000000000000000000000000000000000000000082169050919050565b600073ffffffffffffffffffffffffffffffffffffffff82169050919050565b6000819050919050565b60005b8381101562000c0c57808201518184015260208101905062000bef565b8381111562000c1c576000848401525b50505050565b6000600282049050600182168062000c3b57607f821691505b6020821081141562000c525762000c5162000cbd565b5b50919050565b62000c638262000d40565b810181811067ffffffffffffffff8211171562000c855762000c8462000cec565b5b80604052505050565b7f4e487b7100000000000000000000000000000000000000000000000000000000600052601160045260246000fd5b7f4e487b7100000000000000000000000000000000000000000000000000000000600052602260045260246000fd5b7f4e487b7100000000000000000000000000000000000000000000000000000000600052604160045260246000fd5b600060033d111562000d3d5760046000803e62000d3a60005162000d51565b90505b90565b6000601f19601f8301169050919050565b60008160e01c9050919050565b7f455243313135353a207472616e7366657220746f206e6f6e204552433131353560008201527f526563656976657220696d706c656d656e746572000000000000000000000000602082015250565b7f455243313135353a204552433131353552656365697665722072656a6563746560008201527f6420746f6b656e73000000000000000000000000000000000000000000000000602082015250565b7f455243313135353a206d696e7420746f20746865207a65726f2061646472657360008201527f7300000000000000000000000000000000000000000000000000000000000000602082015250565b600060443d101562000e5d5762000eea565b62000e6762000aad565b60043d036004823e80513d602482011167ffffffffffffffff8211171562000e9157505062000eea565b808201805167ffffffffffffffff81111562000eb1575050505062000eea565b80602083010160043d03850181111562000ed057505050505062000eea565b62000ee18260200185018662000c58565b82955050505050505b90565b62000ef88162000b96565b811462000f0457600080fd5b50565b613be78062000f176000396000f3fe608060405234801561001057600080fd5b50600436106101c25760003560e01c80635a366de4116100f9578063c6b732c911610097578063f081601511610071578063f08160151461052f578063f242432a1461055f578063f2fde38b1461057b578063fa8086ca14610597576101c2565b8063c6b732c9146104b3578063e6f61119146104cf578063e985e9c5146104ff576101c2565b8063a22cb465116100d3578063a22cb46514610429578063a2fb117514610445578063aed128c314610477578063b5dbc6c614610495576101c2565b80635a366de4146103e5578063715018a6146104015780638da5cb5b1461040b576101c2565b80632eb2c2d61161016657806334928e701161014057806334928e701461035d57806336df5764146103675780633db804da146103855780634e1273f4146103b5576101c2565b80632eb2c2d6146102f35780632efd46d61461030f57806331b1b9781461032d576101c2565b806303742368116101a257806303742368146102455780630dcd1abb146102755780630e89341c1461029357806317599cc5146102c3576101c2565b8062b42f2f146101c7578062fdd58e146101e557806301ffc9a714610215575b600080fd5b6101cf6105b5565b6040516101dc91906131db565b60405180910390f35b6101ff60048036038101906101fa9190612845565b6105ba565b60405161020c91906131db565b60405180910390f35b61022f600480360381019061022a9190612916565b610683565b60405161023c9190612f68565b60405180910390f35b61025f600480360381019061025a91906129e5565b610765565b60405161026c9190612f68565b60405180910390f35b61027d6107ce565b60405161028a91906131db565b60405180910390f35b6102ad60048036038101906102a891906129bc565b6107d3565b6040516102ba9190612f9e565b60405180910390f35b6102dd60048036038101906102d891906129bc565b610867565b6040516102ea9190612f83565b60405180910390f35b61030d600480360381019061030891906126bb565b61088b565b005b61031761092c565b60405161032491906131db565b60405180910390f35b610347600480360381019061034291906129bc565b610931565b6040516103549190612f9e565b60405180910390f35b6103656109dd565b005b61036f610a95565b60405161037c91906131db565b60405180910390f35b61039f600480360381019061039a91906129bc565b610a9a565b6040516103ac9190612ded565b60405180910390f35b6103cf60048036038101906103ca9190612881565b610ad9565b6040516103dc9190612f0f565b60405180910390f35b6103ff60048036038101906103fa91906128ed565b610c8a565b005b610409610fb1565b005b610413611039565b6040516104209190612ded565b60405180910390f35b610443600480360381019061043e9190612809565b611063565b005b61045f600480360381019061045a91906129bc565b6111e4565b60405161046e93929190612eca565b60405180910390f35b61047f61134e565b60405161048c91906131db565b60405180910390f35b61049d611353565b6040516104aa91906131db565b60405180910390f35b6104cd60048036038101906104c89190612968565b611358565b005b6104e960048036038101906104e49190612656565b6114bb565b6040516104f691906131c0565b60405180910390f35b6105196004803603810190610514919061267f565b6114dc565b6040516105269190612f68565b60405180910390f35b61054960048036038101906105449190612656565b611570565b60405161055691906131db565b60405180910390f35b6105796004803603810190610574919061277a565b611588565b005b61059560048036038101906105909190612656565b611629565b005b61059f611721565b6040516105ac91906131db565b60405180910390f35b600581565b60008073ffffffffffffffffffffffffffffffffffffffff168373ffffffffffffffffffffffffffffffffffffffff16141561062b576040517f08c379a000000000000000000000000000000000000000000000000000000000815260040161062290613000565b60405180910390fd5b60008083815260200190815260200160002060008473ffffffffffffffffffffffffffffffffffffffff1673ffffffffffffffffffffffffffffffffffffffff16815260200190815260200160002054905092915050565b60007fd9b67a26000000000000000000000000000000000000000000000000000000007bffffffffffffffffffffffffffffffffffffffffffffffffffffffff1916827bffffffffffffffffffffffffffffffffffffffffffffffffffffffff1916148061074e57507f0e89341c000000000000000000000000000000000000000000000000000000007bffffffffffffffffffffffffffffffffffffffffffffffffffffffff1916827bffffffffffffffffffffffffffffffffffffffffffffffffffffffff1916145b8061075e575061075d82611739565b5b9050919050565b60008282604051610777929190612dd4565b6040518091039020600685815481106107b9577f4e487b7100000000000000000000000000000000000000000000000000000000600052603260045260246000fd5b90600052602060002001541490509392505050565b602d81565b6060600280546107e2906134d2565b80601f016020809104026020016040519081016040528092919081815260200182805461080e906134d2565b801561085b5780601f106108305761010080835404028352916020019161085b565b820191906000526020600020905b81548152906001019060200180831161083e57829003601f168201915b50505050509050919050565b6006818154811061087757600080fd5b906000526020600020016000915090505481565b6108936117a3565b73ffffffffffffffffffffffffffffffffffffffff168573ffffffffffffffffffffffffffffffffffffffff1614806108d957506108d8856108d36117a3565b6114dc565b5b610918576040517f08c379a000000000000000000000000000000000000000000000000000000000815260040161090f906130c0565b60405180910390fd5b61092585858585856117ab565b5050505050565b600281565b6005818154811061094157600080fd5b90600052602060002001600091509050805461095c906134d2565b80601f0160208091040260200160405190810160405280929190818152602001828054610988906134d2565b80156109d55780601f106109aa576101008083540402835291602001916109d5565b820191906000526020600020905b8154815290600101906020018083116109b857829003601f168201915b505050505081565b60016109ea3360056105ba565b11610a2a576040517f08c379a0000000000000000000000000000000000000000000000000000000008152600401610a2190613140565b60405180910390fd5b610a4f33610a36611039565b6005600160405180602001604052806000815250611588565b42600860003373ffffffffffffffffffffffffffffffffffffffff1673ffffffffffffffffffffffffffffffffffffffff16815260200190815260200160002081905550565b600a81565b60048181548110610aaa57600080fd5b906000526020600020016000915054906101000a900473ffffffffffffffffffffffffffffffffffffffff1681565b60608151835114610b1f576040517f08c379a0000000000000000000000000000000000000000000000000000000008152600401610b1690613180565b60405180910390fd5b6000835167ffffffffffffffff811115610b62577f4e487b7100000000000000000000000000000000000000000000000000000000600052604160045260246000fd5b604051908082528060200260200182016040528015610b905781602001602082028036833780820191505090505b50905060005b8451811015610c7f57610c29858281518110610bdb577f4e487b7100000000000000000000000000000000000000000000000000000000600052603260045260246000fd5b6020026020010151858381518110610c1c577f4e487b7100000000000000000000000000000000000000000000000000000000600052603260045260246000fd5b60200260200101516105ba565b828281518110610c62577f4e487b7100000000000000000000000000000000000000000000000000000000600052603260045260246000fd5b60200260200101818152505080610c7890613560565b9050610b96565b508091505092915050565b6000600860003373ffffffffffffffffffffffffffffffffffffffff1673ffffffffffffffffffffffffffffffffffffffff1681526020019081526020016000205411610d0c576040517f08c379a0000000000000000000000000000000000000000000000000000000008152600401610d0390613040565b60405180910390fd5b602d600860003373ffffffffffffffffffffffffffffffffffffffff1673ffffffffffffffffffffffffffffffffffffffff1681526020019081526020016000205442610d5991906133d0565b10610d99576040517f08c379a0000000000000000000000000000000000000000000000000000000008152600401610d9090613100565b60405180910390fd5b610e73610da4611039565b6004600760003373ffffffffffffffffffffffffffffffffffffffff1673ffffffffffffffffffffffffffffffffffffffff16815260200190815260200160002060009054906101000a900461ffff1661ffff1681548110610e2f577f4e487b7100000000000000000000000000000000000000000000000000000000600052603260045260246000fd5b9060005260206000200160009054906101000a900473ffffffffffffffffffffffffffffffffffffffff166005600160405180602001604052806000815250611588565b806006600760003373ffffffffffffffffffffffffffffffffffffffff1673ffffffffffffffffffffffffffffffffffffffff16815260200190815260200160002060009054906101000a900461ffff1661ffff1681548110610eff577f4e487b7100000000000000000000000000000000000000000000000000000000600052603260045260246000fd5b90600052602060002001541415610f3657610f35610f1b611039565b336004600160405180602001604052806000815250611588565b5b600760003373ffffffffffffffffffffffffffffffffffffffff1673ffffffffffffffffffffffffffffffffffffffff168152602001908152602001600020600081819054906101000a900461ffff1680929190610f9390613535565b91906101000a81548161ffff021916908361ffff1602179055505050565b610fb96117a3565b73ffffffffffffffffffffffffffffffffffffffff16610fd7611039565b73ffffffffffffffffffffffffffffffffffffffff161461102d576040517f08c379a000000000000000000000000000000000000000000000000000000000815260040161102490613120565b60405180910390fd5b6110376000611b0b565b565b6000600360009054906101000a900473ffffffffffffffffffffffffffffffffffffffff16905090565b8173ffffffffffffffffffffffffffffffffffffffff166110826117a3565b73ffffffffffffffffffffffffffffffffffffffff1614156110d9576040517f08c379a00000000000000000000000000000000000000000000000000000000081526004016110d090613160565b60405180910390fd5b80600160006110e66117a3565b73ffffffffffffffffffffffffffffffffffffffff1673ffffffffffffffffffffffffffffffffffffffff16815260200190815260200160002060008473ffffffffffffffffffffffffffffffffffffffff1673ffffffffffffffffffffffffffffffffffffffff16815260200190815260200160002060006101000a81548160ff0219169083151502179055508173ffffffffffffffffffffffffffffffffffffffff166111936117a3565b73ffffffffffffffffffffffffffffffffffffffff167f17307eab39ab6107e8899845ad3d59bd9653f200f220920489ca2b5937696c31836040516111d89190612f68565b60405180910390a35050565b600981815481106111f457600080fd5b90600052602060002090600302016000915090508060000160009054906101000a900473ffffffffffffffffffffffffffffffffffffffff169080600101805461123d906134d2565b80601f0160208091040260200160405190810160405280929190818152602001828054611269906134d2565b80156112b65780601f1061128b576101008083540402835291602001916112b6565b820191906000526020600020905b81548152906001019060200180831161129957829003601f168201915b5050505050908060020180546112cb906134d2565b80601f01602080910402602001604051908101604052809291908181526020018280546112f7906134d2565b80156113445780601f1061131957610100808354040283529160200191611344565b820191906000526020600020905b81548152906001019060200180831161132757829003601f168201915b5050505050905083565b600481565b600381565b60006113653360036105ba565b116113a5576040517f08c379a000000000000000000000000000000000000000000000000000000000815260040161139c90613060565b60405180910390fd5b6113ca336113b1611039565b6003600160405180602001604052806000815250611588565b6113ef6113d5611039565b336002600160405180602001604052806000815250611588565b60058290806001815401808255809150506001900390600052602060002001600090919091909150908051906020019061142a9291906122ef565b5060068190806001815401808255809150506001900390600052602060002001600090919091909150556004339080600181540180825580915050600190039060005260206000200160009091909190916101000a81548173ffffffffffffffffffffffffffffffffffffffff021916908373ffffffffffffffffffffffffffffffffffffffff1602179055505050565b60076020528060005260406000206000915054906101000a900461ffff1681565b6000600160008473ffffffffffffffffffffffffffffffffffffffff1673ffffffffffffffffffffffffffffffffffffffff16815260200190815260200160002060008373ffffffffffffffffffffffffffffffffffffffff1673ffffffffffffffffffffffffffffffffffffffff16815260200190815260200160002060009054906101000a900460ff16905092915050565b60086020528060005260406000206000915090505481565b6115906117a3565b73ffffffffffffffffffffffffffffffffffffffff168573ffffffffffffffffffffffffffffffffffffffff1614806115d657506115d5856115d06117a3565b6114dc565b5b611615576040517f08c379a000000000000000000000000000000000000000000000000000000000815260040161160c90613080565b60405180910390fd5b6116228585858585611bd1565b5050505050565b6116316117a3565b73ffffffffffffffffffffffffffffffffffffffff1661164f611039565b73ffffffffffffffffffffffffffffffffffffffff16146116a5576040517f08c379a000000000000000000000000000000000000000000000000000000000815260040161169c90613120565b60405180910390fd5b600073ffffffffffffffffffffffffffffffffffffffff168173ffffffffffffffffffffffffffffffffffffffff161415611715576040517f08c379a000000000000000000000000000000000000000000000000000000000815260040161170c90613020565b60405180910390fd5b61171e81611b0b565b50565b600181565b600080823b905060008111915050919050565b60007f01ffc9a7000000000000000000000000000000000000000000000000000000007bffffffffffffffffffffffffffffffffffffffffffffffffffffffff1916827bffffffffffffffffffffffffffffffffffffffffffffffffffffffff1916149050919050565b600033905090565b81518351146117ef576040517f08c379a00000000000000000000000000000000000000000000000000000000081526004016117e6906131a0565b60405180910390fd5b600073ffffffffffffffffffffffffffffffffffffffff168473ffffffffffffffffffffffffffffffffffffffff16141561185f576040517f08c379a0000000000000000000000000000000000000000000000000000000008152600401611856906130a0565b60405180910390fd5b60006118696117a3565b9050611879818787878787611e53565b60005b8451811015611a765760008582815181106118c0577f4e487b7100000000000000000000000000000000000000000000000000000000600052603260045260246000fd5b602002602001015190506000858381518110611905577f4e487b7100000000000000000000000000000000000000000000000000000000600052603260045260246000fd5b60200260200101519050600080600084815260200190815260200160002060008b73ffffffffffffffffffffffffffffffffffffffff1673ffffffffffffffffffffffffffffffffffffffff168152602001908152602001600020549050818110156119a6576040517f08c379a000000000000000000000000000000000000000000000000000000000815260040161199d906130e0565b60405180910390fd5b81810360008085815260200190815260200160002060008c73ffffffffffffffffffffffffffffffffffffffff1673ffffffffffffffffffffffffffffffffffffffff168152602001908152602001600020819055508160008085815260200190815260200160002060008b73ffffffffffffffffffffffffffffffffffffffff1673ffffffffffffffffffffffffffffffffffffffff1681526020019081526020016000206000828254611a5b919061337a565b9250508190555050505080611a6f90613560565b905061187c565b508473ffffffffffffffffffffffffffffffffffffffff168673ffffffffffffffffffffffffffffffffffffffff168273ffffffffffffffffffffffffffffffffffffffff167f4a39dc06d4c0dbc64b70af90fd698a233a518aa5d07e595d983b8c0526c8f7fb8787604051611aed929190612f31565b60405180910390a4611b03818787878787611e5b565b505050505050565b6000600360009054906101000a900473ffffffffffffffffffffffffffffffffffffffff16905081600360006101000a81548173ffffffffffffffffffffffffffffffffffffffff021916908373ffffffffffffffffffffffffffffffffffffffff1602179055508173ffffffffffffffffffffffffffffffffffffffff168173ffffffffffffffffffffffffffffffffffffffff167f8be0079c531659141344cd1fd0a4f28419497f9722a3daafe3b4186f6b6457e060405160405180910390a35050565b600073ffffffffffffffffffffffffffffffffffffffff168473ffffffffffffffffffffffffffffffffffffffff161415611c41576040517f08c379a0000000000000000000000000000000000000000000000000000000008152600401611c38906130a0565b60405180910390fd5b6000611c4b6117a3565b9050611c6b818787611c5c88612042565b611c6588612042565b87611e53565b600080600086815260200190815260200160002060008873ffffffffffffffffffffffffffffffffffffffff1673ffffffffffffffffffffffffffffffffffffffff16815260200190815260200160002054905083811015611d02576040517f08c379a0000000000000000000000000000000000000000000000000000000008152600401611cf9906130e0565b60405180910390fd5b83810360008087815260200190815260200160002060008973ffffffffffffffffffffffffffffffffffffffff1673ffffffffffffffffffffffffffffffffffffffff168152602001908152602001600020819055508360008087815260200190815260200160002060008873ffffffffffffffffffffffffffffffffffffffff1673ffffffffffffffffffffffffffffffffffffffff1681526020019081526020016000206000828254611db7919061337a565b925050819055508573ffffffffffffffffffffffffffffffffffffffff168773ffffffffffffffffffffffffffffffffffffffff168373ffffffffffffffffffffffffffffffffffffffff167fc3d58168c5ae7397731d063d5bbf3d657854427343f4c083240f7aacaa2d0f628888604051611e349291906131f6565b60405180910390a4611e4a828888888888612108565b50505050505050565b505050505050565b611e7a8473ffffffffffffffffffffffffffffffffffffffff16611726565b1561203a578373ffffffffffffffffffffffffffffffffffffffff1663bc197c8187878686866040518663ffffffff1660e01b8152600401611ec0959493929190612e08565b602060405180830381600087803b158015611eda57600080fd5b505af1925050508015611f0b57506040513d601f19601f82011682018060405250810190611f08919061293f565b60015b611fb157611f17613636565b806308c379a01415611f745750611f2c613aa8565b80611f375750611f76565b806040517f08c379a0000000000000000000000000000000000000000000000000000000008152600401611f6b9190612f9e565b60405180910390fd5b505b6040517f08c379a0000000000000000000000000000000000000000000000000000000008152600401611fa890612fc0565b60405180910390fd5b63bc197c8160e01b7bffffffffffffffffffffffffffffffffffffffffffffffffffffffff1916817bffffffffffffffffffffffffffffffffffffffffffffffffffffffff191614612038576040517f08c379a000000000000000000000000000000000000000000000000000000000815260040161202f90612fe0565b60405180910390fd5b505b505050505050565b60606000600167ffffffffffffffff811115612087577f4e487b7100000000000000000000000000000000000000000000000000000000600052604160045260246000fd5b6040519080825280602002602001820160405280156120b55781602001602082028036833780820191505090505b50905082816000815181106120f3577f4e487b7100000000000000000000000000000000000000000000000000000000600052603260045260246000fd5b60200260200101818152505080915050919050565b6121278473ffffffffffffffffffffffffffffffffffffffff16611726565b156122e7578373ffffffffffffffffffffffffffffffffffffffff1663f23a6e6187878686866040518663ffffffff1660e01b815260040161216d959493929190612e70565b602060405180830381600087803b15801561218757600080fd5b505af19250505080156121b857506040513d601f19601f820116820180604052508101906121b5919061293f565b60015b61225e576121c4613636565b806308c379a0141561222157506121d9613aa8565b806121e45750612223565b806040517f08c379a00000000000000000000000000000000000000000000000000000000081526004016122189190612f9e565b60405180910390fd5b505b6040517f08c379a000000000000000000000000000000000000000000000000000000000815260040161225590612fc0565b60405180910390fd5b63f23a6e6160e01b7bffffffffffffffffffffffffffffffffffffffffffffffffffffffff1916817bffffffffffffffffffffffffffffffffffffffffffffffffffffffff1916146122e5576040517f08c379a00000000000000000000000000000000000000000000000000000000081526004016122dc90612fe0565b60405180910390fd5b505b505050505050565b8280546122fb906134d2565b90600052602060002090601f01602090048101928261231d5760008555612364565b82601f1061233657805160ff1916838001178555612364565b82800160010185558215612364579182015b82811115612363578251825591602001919060010190612348565b5b5090506123719190612375565b5090565b5b8082111561238e576000816000905550600101612376565b5090565b60006123a56123a084613244565b61321f565b905080838252602082019050828560208602820111156123c457600080fd5b60005b858110156123f457816123da88826124e6565b8452602084019350602083019250506001810190506123c7565b5050509392505050565b600061241161240c84613270565b61321f565b9050808382526020820190508285602086028201111561243057600080fd5b60005b8581101561246057816124468882612641565b845260208401935060208301925050600181019050612433565b5050509392505050565b600061247d6124788461329c565b61321f565b90508281526020810184848401111561249557600080fd5b6124a0848285613490565b509392505050565b60006124bb6124b6846132cd565b61321f565b9050828152602081018484840111156124d357600080fd5b6124de848285613490565b509392505050565b6000813590506124f581613b3e565b92915050565b600082601f83011261250c57600080fd5b813561251c848260208601612392565b91505092915050565b600082601f83011261253657600080fd5b81356125468482602086016123fe565b91505092915050565b60008135905061255e81613b55565b92915050565b60008135905061257381613b6c565b92915050565b60008135905061258881613b83565b92915050565b60008151905061259d81613b83565b92915050565b600082601f8301126125b457600080fd5b81356125c484826020860161246a565b91505092915050565b60008083601f8401126125df57600080fd5b8235905067ffffffffffffffff8111156125f857600080fd5b60208301915083600182028301111561261057600080fd5b9250929050565b600082601f83011261262857600080fd5b81356126388482602086016124a8565b91505092915050565b60008135905061265081613b9a565b92915050565b60006020828403121561266857600080fd5b6000612676848285016124e6565b91505092915050565b6000806040838503121561269257600080fd5b60006126a0858286016124e6565b92505060206126b1858286016124e6565b9150509250929050565b600080600080600060a086880312156126d357600080fd5b60006126e1888289016124e6565b95505060206126f2888289016124e6565b945050604086013567ffffffffffffffff81111561270f57600080fd5b61271b88828901612525565b935050606086013567ffffffffffffffff81111561273857600080fd5b61274488828901612525565b925050608086013567ffffffffffffffff81111561276157600080fd5b61276d888289016125a3565b9150509295509295909350565b600080600080600060a0868803121561279257600080fd5b60006127a0888289016124e6565b95505060206127b1888289016124e6565b94505060406127c288828901612641565b93505060606127d388828901612641565b925050608086013567ffffffffffffffff8111156127f057600080fd5b6127fc888289016125a3565b9150509295509295909350565b6000806040838503121561281c57600080fd5b600061282a858286016124e6565b925050602061283b8582860161254f565b9150509250929050565b6000806040838503121561285857600080fd5b6000612866858286016124e6565b925050602061287785828601612641565b9150509250929050565b6000806040838503121561289457600080fd5b600083013567ffffffffffffffff8111156128ae57600080fd5b6128ba858286016124fb565b925050602083013567ffffffffffffffff8111156128d757600080fd5b6128e385828601612525565b9150509250929050565b6000602082840312156128ff57600080fd5b600061290d84828501612564565b91505092915050565b60006020828403121561292857600080fd5b600061293684828501612579565b91505092915050565b60006020828403121561295157600080fd5b600061295f8482850161258e565b91505092915050565b6000806040838503121561297b57600080fd5b600083013567ffffffffffffffff81111561299557600080fd5b6129a185828601612617565b92505060206129b285828601612564565b9150509250929050565b6000602082840312156129ce57600080fd5b60006129dc84828501612641565b91505092915050565b6000806000604084860312156129fa57600080fd5b6000612a0886828701612641565b935050602084013567ffffffffffffffff811115612a2557600080fd5b612a31868287016125cd565b92509250509250925092565b6000612a498383612db6565b60208301905092915050565b612a5e81613404565b82525050565b6000612a6f8261330e565b612a79818561333c565b9350612a84836132fe565b8060005b83811015612ab5578151612a9c8882612a3d565b9750612aa78361332f565b925050600181019050612a88565b5085935050505092915050565b612acb81613416565b82525050565b612ada81613422565b82525050565b6000612aec838561335e565b9350612af9838584613490565b82840190509392505050565b6000612b1082613319565b612b1a818561334d565b9350612b2a81856020860161349f565b612b3381613658565b840191505092915050565b6000612b4982613324565b612b538185613369565b9350612b6381856020860161349f565b612b6c81613658565b840191505092915050565b6000612b84603483613369565b9150612b8f82613676565b604082019050919050565b6000612ba7602883613369565b9150612bb2826136c5565b604082019050919050565b6000612bca602b83613369565b9150612bd582613714565b604082019050919050565b6000612bed602683613369565b9150612bf882613763565b604082019050919050565b6000612c10601d83613369565b9150612c1b826137b2565b602082019050919050565b6000612c33601c83613369565b9150612c3e826137db565b602082019050919050565b6000612c56602983613369565b9150612c6182613804565b604082019050919050565b6000612c79602583613369565b9150612c8482613853565b604082019050919050565b6000612c9c603283613369565b9150612ca7826138a2565b604082019050919050565b6000612cbf602a83613369565b9150612cca826138f1565b604082019050919050565b6000612ce2601083613369565b9150612ced82613940565b602082019050919050565b6000612d05602083613369565b9150612d1082613969565b602082019050919050565b6000612d28601b83613369565b9150612d3382613992565b602082019050919050565b6000612d4b602983613369565b9150612d56826139bb565b604082019050919050565b6000612d6e602983613369565b9150612d7982613a0a565b604082019050919050565b6000612d91602883613369565b9150612d9c82613a59565b604082019050919050565b612db081613458565b82525050565b612dbf81613486565b82525050565b612dce81613486565b82525050565b6000612de1828486612ae0565b91508190509392505050565b6000602082019050612e026000830184612a55565b92915050565b600060a082019050612e1d6000830188612a55565b612e2a6020830187612a55565b8181036040830152612e3c8186612a64565b90508181036060830152612e508185612a64565b90508181036080830152612e648184612b05565b90509695505050505050565b600060a082019050612e856000830188612a55565b612e926020830187612a55565b612e9f6040830186612dc5565b612eac6060830185612dc5565b8181036080830152612ebe8184612b05565b90509695505050505050565b6000606082019050612edf6000830186612a55565b8181036020830152612ef18185612b3e565b90508181036040830152612f058184612b3e565b9050949350505050565b60006020820190508181036000830152612f298184612a64565b905092915050565b60006040820190508181036000830152612f4b8185612a64565b90508181036020830152612f5f8184612a64565b90509392505050565b6000602082019050612f7d6000830184612ac2565b92915050565b6000602082019050612f986000830184612ad1565b92915050565b60006020820190508181036000830152612fb88184612b3e565b905092915050565b60006020820190508181036000830152612fd981612b77565b9050919050565b60006020820190508181036000830152612ff981612b9a565b9050919050565b6000602082019050818103600083015261301981612bbd565b9050919050565b6000602082019050818103600083015261303981612be0565b9050919050565b6000602082019050818103600083015261305981612c03565b9050919050565b6000602082019050818103600083015261307981612c26565b9050919050565b6000602082019050818103600083015261309981612c49565b9050919050565b600060208201905081810360008301526130b981612c6c565b9050919050565b600060208201905081810360008301526130d981612c8f565b9050919050565b600060208201905081810360008301526130f981612cb2565b9050919050565b6000602082019050818103600083015261311981612cd5565b9050919050565b6000602082019050818103600083015261313981612cf8565b9050919050565b6000602082019050818103600083015261315981612d1b565b9050919050565b6000602082019050818103600083015261317981612d3e565b9050919050565b6000602082019050818103600083015261319981612d61565b9050919050565b600060208201905081810360008301526131b981612d84565b9050919050565b60006020820190506131d56000830184612da7565b92915050565b60006020820190506131f06000830184612dc5565b92915050565b600060408201905061320b6000830185612dc5565b6132186020830184612dc5565b9392505050565b600061322961323a565b90506132358282613504565b919050565b6000604051905090565b600067ffffffffffffffff82111561325f5761325e613607565b5b602082029050602081019050919050565b600067ffffffffffffffff82111561328b5761328a613607565b5b602082029050602081019050919050565b600067ffffffffffffffff8211156132b7576132b6613607565b5b6132c082613658565b9050602081019050919050565b600067ffffffffffffffff8211156132e8576132e7613607565b5b6132f182613658565b9050602081019050919050565b6000819050602082019050919050565b600081519050919050565b600081519050919050565b600081519050919050565b6000602082019050919050565b600082825260208201905092915050565b600082825260208201905092915050565b600081905092915050565b600082825260208201905092915050565b600061338582613486565b915061339083613486565b9250827fffffffffffffffffffffffffffffffffffffffffffffffffffffffffffffffff038211156133c5576133c46135a9565b5b828201905092915050565b60006133db82613486565b91506133e683613486565b9250828210156133f9576133f86135a9565b5b828203905092915050565b600061340f82613466565b9050919050565b60008115159050919050565b6000819050919050565b60007fffffffff0000000000000000000000000000000000000000000000000000000082169050919050565b600061ffff82169050919050565b600073ffffffffffffffffffffffffffffffffffffffff82169050919050565b6000819050919050565b82818337600083830152505050565b60005b838110156134bd5780820151818401526020810190506134a2565b838111156134cc576000848401525b50505050565b600060028204905060018216806134ea57607f821691505b602082108114156134fe576134fd6135d8565b5b50919050565b61350d82613658565b810181811067ffffffffffffffff8211171561352c5761352b613607565b5b80604052505050565b600061354082613458565b915061ffff821415613555576135546135a9565b5b600182019050919050565b600061356b82613486565b91507fffffffffffffffffffffffffffffffffffffffffffffffffffffffffffffffff82141561359e5761359d6135a9565b5b600182019050919050565b7f4e487b7100000000000000000000000000000000000000000000000000000000600052601160045260246000fd5b7f4e487b7100000000000000000000000000000000000000000000000000000000600052602260045260246000fd5b7f4e487b7100000000000000000000000000000000000000000000000000000000600052604160045260246000fd5b600060033d11156136555760046000803e613652600051613669565b90505b90565b6000601f19601f8301169050919050565b60008160e01c9050919050565b7f455243313135353a207472616e7366657220746f206e6f6e204552433131353560008201527f526563656976657220696d706c656d656e746572000000000000000000000000602082015250565b7f455243313135353a204552433131353552656365697665722072656a6563746560008201527f6420746f6b656e73000000000000000000000000000000000000000000000000602082015250565b7f455243313135353a2062616c616e636520717565727920666f7220746865207a60008201527f65726f2061646472657373000000000000000000000000000000000000000000602082015250565b7f4f776e61626c653a206e6577206f776e657220697320746865207a65726f206160008201527f6464726573730000000000000000000000000000000000000000000000000000602082015250565b7f596f7520686176656e2774207374617274656420616e73776572696e67000000600082015250565b7f4e6f7420656e6f75676820676f7665726e616e636520746f6b656e7300000000600082015250565b7f455243313135353a2063616c6c6572206973206e6f74206f776e6572206e6f7260008201527f20617070726f7665640000000000000000000000000000000000000000000000602082015250565b7f455243313135353a207472616e7366657220746f20746865207a65726f20616460008201527f6472657373000000000000000000000000000000000000000000000000000000602082015250565b7f455243313135353a207472616e736665722063616c6c6572206973206e6f742060008201527f6f776e6572206e6f7220617070726f7665640000000000000000000000000000602082015250565b7f455243313135353a20696e73756666696369656e742062616c616e636520666f60008201527f72207472616e7366657200000000000000000000000000000000000000000000602082015250565b7f45787069726564207175657374696f6e00000000000000000000000000000000600082015250565b7f4f776e61626c653a2063616c6c6572206973206e6f7420746865206f776e6572600082015250565b7f4e6f7420656e6f75676820616e73776572696e6720746f6b656e730000000000600082015250565b7f455243313135353a2073657474696e6720617070726f76616c2073746174757360008201527f20666f722073656c660000000000000000000000000000000000000000000000602082015250565b7f455243313135353a206163636f756e747320616e6420696473206c656e67746860008201527f206d69736d617463680000000000000000000000000000000000000000000000602082015250565b7f455243313135353a2069647320616e6420616d6f756e7473206c656e6774682060008201527f6d69736d61746368000000000000000000000000000000000000000000000000602082015250565b600060443d1015613ab857613b3b565b613ac061323a565b60043d036004823e80513d602482011167ffffffffffffffff82111715613ae8575050613b3b565b808201805167ffffffffffffffff811115613b065750505050613b3b565b80602083010160043d038501811115613b23575050505050613b3b565b613b3282602001850186613504565b82955050505050505b90565b613b4781613404565b8114613b5257600080fd5b50565b613b5e81613416565b8114613b6957600080fd5b50565b613b7581613422565b8114613b8057600080fd5b50565b613b8c8161342c565b8114613b9757600080fd5b50565b613ba381613486565b8114613bae57600080fd5b5056fea26469706673582212205c3d95350e1b543e434b143bb407689d01170c57b8e05f73cb091e0ce3421c8b64736f6c63430008040033",
  "linkReferences": {},
  "deployedLinkReferences": {}
}